{
	"BCT/Array5.sol": {
		"Array": {
			"abi": [
				{
					"inputs": [
						{
							"internalType": "uint256[]",
							"name": "_arr",
							"type": "uint256[]"
						}
					],
					"name": "acceptArray",
					"outputs": [],
					"stateMutability": "nonpayable",
					"type": "function"
				},
				{
					"inputs": [
						{
							"internalType": "uint256",
							"name": "",
							"type": "uint256"
						}
					],
					"name": "arr",
					"outputs": [
						{
							"internalType": "uint256",
							"name": "",
							"type": "uint256"
						}
					],
					"stateMutability": "view",
					"type": "function"
				},
				{
					"inputs": [],
					"name": "display",
					"outputs": [
						{
							"internalType": "uint256[]",
							"name": "",
							"type": "uint256[]"
						}
					],
					"stateMutability": "view",
					"type": "function"
				},
				{
					"inputs": [],
					"name": "sumIs",
					"outputs": [
						{
							"internalType": "uint256",
							"name": "",
							"type": "uint256"
						}
					],
					"stateMutability": "view",
					"type": "function"
				},
				{
					"inputs": [],
					"name": "sumOfArrayEle",
					"outputs": [],
					"stateMutability": "nonpayable",
					"type": "function"
				}
			],
			"devdoc": {
				"kind": "dev",
				"methods": {},
				"version": 1
			},
			"evm": {
				"assembly": "    /* \"BCT/Array5.sol\":61:656  contract Array{... */\n  mstore(0x40, 0x80)\n    /* \"BCT/Array5.sol\":115:116  0 */\n  0x00\n    /* \"BCT/Array5.sol\":106:116  uint sum=0 */\n  0x01\n  sstore\n    /* \"BCT/Array5.sol\":61:656  contract Array{... */\n  callvalue\n  dup1\n  iszero\n  tag_1\n  jumpi\n  0x00\n  dup1\n  revert\ntag_1:\n  pop\n  dataSize(sub_0)\n  dup1\n  dataOffset(sub_0)\n  0x00\n  codecopy\n  0x00\n  return\nstop\n\nsub_0: assembly {\n        /* \"BCT/Array5.sol\":61:656  contract Array{... */\n      mstore(0x40, 0x80)\n      callvalue\n      dup1\n      iszero\n      tag_1\n      jumpi\n      0x00\n      dup1\n      revert\n    tag_1:\n      pop\n      jumpi(tag_2, lt(calldatasize, 0x04))\n      shr(0xe0, calldataload(0x00))\n      dup1\n      0x0c1b7c1e\n      eq\n      tag_3\n      jumpi\n      dup1\n      0x0c3263fb\n      eq\n      tag_4\n      jumpi\n      dup1\n      0x71e5ee5f\n      eq\n      tag_5\n      jumpi\n      dup1\n      0xe508f2b3\n      eq\n      tag_6\n      jumpi\n      dup1\n      0xebebf2bd\n      eq\n      tag_7\n      jumpi\n    tag_2:\n      0x00\n      dup1\n      revert\n        /* \"BCT/Array5.sol\":288:369  function display()public view returns(uint[] memory){... */\n    tag_3:\n      tag_8\n      tag_9\n      jump\t// in\n    tag_8:\n      mload(0x40)\n      tag_10\n      swap2\n      swap1\n      tag_11\n      jump\t// in\n    tag_10:\n      mload(0x40)\n      dup1\n      swap2\n      sub\n      swap1\n      return\n        /* \"BCT/Array5.sol\":582:653  function sumIs()public view returns(uint){... */\n    tag_4:\n      tag_12\n      tag_13\n      jump\t// in\n    tag_12:\n      mload(0x40)\n      tag_14\n      swap2\n      swap1\n      tag_15\n      jump\t// in\n    tag_14:\n      mload(0x40)\n      dup1\n      swap2\n      sub\n      swap1\n      return\n        /* \"BCT/Array5.sol\":82:99  uint[] public arr */\n    tag_5:\n      tag_16\n      0x04\n      dup1\n      calldatasize\n      sub\n      dup2\n      add\n      swap1\n      tag_17\n      swap2\n      swap1\n      tag_18\n      jump\t// in\n    tag_17:\n      tag_19\n      jump\t// in\n    tag_16:\n      mload(0x40)\n      tag_20\n      swap2\n      swap1\n      tag_15\n      jump\t// in\n    tag_20:\n      mload(0x40)\n      dup1\n      swap2\n      sub\n      swap1\n      return\n        /* \"BCT/Array5.sol\":163:237  function acceptArray(uint[] memory _arr)public {... */\n    tag_6:\n      tag_21\n      0x04\n      dup1\n      calldatasize\n      sub\n      dup2\n      add\n      swap1\n      tag_22\n      swap2\n      swap1\n      tag_23\n      jump\t// in\n    tag_22:\n      tag_24\n      jump\t// in\n    tag_21:\n      stop\n        /* \"BCT/Array5.sol\":412:528  function sumOfArrayEle()public{... */\n    tag_7:\n      tag_25\n      tag_26\n      jump\t// in\n    tag_25:\n      stop\n        /* \"BCT/Array5.sol\":288:369  function display()public view returns(uint[] memory){... */\n    tag_9:\n        /* \"BCT/Array5.sol\":326:339  uint[] memory */\n      0x60\n        /* \"BCT/Array5.sol\":358:361  arr */\n      0x00\n        /* \"BCT/Array5.sol\":351:361  return arr */\n      dup1\n      sload\n      dup1\n      0x20\n      mul\n      0x20\n      add\n      mload(0x40)\n      swap1\n      dup2\n      add\n      0x40\n      mstore\n      dup1\n      swap3\n      swap2\n      swap1\n      dup2\n      dup2\n      mstore\n      0x20\n      add\n      dup3\n      dup1\n      sload\n      dup1\n      iszero\n      tag_28\n      jumpi\n      0x20\n      mul\n      dup3\n      add\n      swap2\n      swap1\n      0x00\n      mstore\n      keccak256(0x00, 0x20)\n      swap1\n    tag_29:\n      dup2\n      sload\n      dup2\n      mstore\n      0x20\n      add\n      swap1\n      0x01\n      add\n      swap1\n      dup1\n      dup4\n      gt\n      tag_29\n      jumpi\n    tag_28:\n      pop\n      pop\n      pop\n      pop\n      pop\n      swap1\n      pop\n        /* \"BCT/Array5.sol\":288:369  function display()public view returns(uint[] memory){... */\n      swap1\n      jump\t// out\n        /* \"BCT/Array5.sol\":582:653  function sumIs()public view returns(uint){... */\n    tag_13:\n        /* \"BCT/Array5.sol\":618:622  uint */\n      0x00\n        /* \"BCT/Array5.sol\":642:645  sum */\n      sload(0x01)\n        /* \"BCT/Array5.sol\":635:645  return sum */\n      swap1\n      pop\n        /* \"BCT/Array5.sol\":582:653  function sumIs()public view returns(uint){... */\n      swap1\n      jump\t// out\n        /* \"BCT/Array5.sol\":82:99  uint[] public arr */\n    tag_19:\n      0x00\n      dup2\n      dup2\n      sload\n      dup2\n      lt\n      tag_31\n      jumpi\n      0x00\n      dup1\n      revert\n    tag_31:\n      swap1\n      0x00\n      mstore\n      keccak256(0x00, 0x20)\n      add\n      0x00\n      swap2\n      pop\n      swap1\n      pop\n      sload\n      dup2\n      jump\t// out\n        /* \"BCT/Array5.sol\":163:237  function acceptArray(uint[] memory _arr)public {... */\n    tag_24:\n        /* \"BCT/Array5.sol\":225:229  _arr */\n      dup1\n        /* \"BCT/Array5.sol\":221:224  arr */\n      0x00\n        /* \"BCT/Array5.sol\":221:229  arr=_arr */\n      swap1\n      dup1\n      mload\n      swap1\n      0x20\n      add\n      swap1\n      tag_34\n      swap3\n      swap2\n      swap1\n      tag_35\n      jump\t// in\n    tag_34:\n      pop\n        /* \"BCT/Array5.sol\":163:237  function acceptArray(uint[] memory _arr)public {... */\n      pop\n      jump\t// out\n        /* \"BCT/Array5.sol\":412:528  function sumOfArrayEle()public{... */\n    tag_26:\n        /* \"BCT/Array5.sol\":457:463  uint i */\n      0x00\n        /* \"BCT/Array5.sol\":453:521  for(uint i=0;i<arr.length;i++){... */\n    tag_37:\n        /* \"BCT/Array5.sol\":468:471  arr */\n      0x00\n        /* \"BCT/Array5.sol\":468:478  arr.length */\n      dup1\n      sload\n      swap1\n      pop\n        /* \"BCT/Array5.sol\":466:467  i */\n      dup2\n        /* \"BCT/Array5.sol\":466:478  i<arr.length */\n      lt\n        /* \"BCT/Array5.sol\":453:521  for(uint i=0;i<arr.length;i++){... */\n      iszero\n      tag_38\n      jumpi\n        /* \"BCT/Array5.sol\":503:506  arr */\n      0x00\n        /* \"BCT/Array5.sol\":507:508  i */\n      dup2\n        /* \"BCT/Array5.sol\":503:509  arr[i] */\n      dup2\n      sload\n      dup2\n      lt\n      tag_40\n      jumpi\n      tag_41\n      tag_42\n      jump\t// in\n    tag_41:\n    tag_40:\n      swap1\n      0x00\n      mstore\n      keccak256(0x00, 0x20)\n      add\n      sload\n        /* \"BCT/Array5.sol\":498:501  sum */\n      0x01\n      0x00\n        /* \"BCT/Array5.sol\":498:509  sum+=arr[i] */\n      dup3\n      dup3\n      sload\n      tag_44\n      swap2\n      swap1\n      tag_45\n      jump\t// in\n    tag_44:\n      swap3\n      pop\n      pop\n      dup2\n      swap1\n      sstore\n      pop\n        /* \"BCT/Array5.sol\":479:482  i++ */\n      dup1\n      dup1\n      tag_46\n      swap1\n      tag_47\n      jump\t// in\n    tag_46:\n      swap2\n      pop\n      pop\n        /* \"BCT/Array5.sol\":453:521  for(uint i=0;i<arr.length;i++){... */\n      jump(tag_37)\n    tag_38:\n      pop\n        /* \"BCT/Array5.sol\":412:528  function sumOfArrayEle()public{... */\n      jump\t// out\n    tag_35:\n      dup3\n      dup1\n      sload\n      dup3\n      dup3\n      sstore\n      swap1\n      0x00\n      mstore\n      keccak256(0x00, 0x20)\n      swap1\n      dup2\n      add\n      swap3\n      dup3\n      iszero\n      tag_48\n      jumpi\n      swap2\n      0x20\n      mul\n      dup3\n      add\n    tag_49:\n      dup3\n      dup2\n      gt\n      iszero\n      tag_50\n      jumpi\n      dup3\n      mload\n      dup3\n      sstore\n      swap2\n      0x20\n      add\n      swap2\n      swap1\n      0x01\n      add\n      swap1\n      jump(tag_49)\n    tag_50:\n    tag_48:\n      pop\n      swap1\n      pop\n      tag_51\n      swap2\n      swap1\n      tag_52\n      jump\t// in\n    tag_51:\n      pop\n      swap1\n      jump\t// out\n    tag_52:\n    tag_53:\n      dup1\n      dup3\n      gt\n      iszero\n      tag_54\n      jumpi\n      0x00\n      dup2\n      0x00\n      swap1\n      sstore\n      pop\n      0x01\n      add\n      jump(tag_53)\n    tag_54:\n      pop\n      swap1\n      jump\t// out\n        /* \"#utility.yul\":7:121   */\n    tag_55:\n        /* \"#utility.yul\":74:80   */\n      0x00\n        /* \"#utility.yul\":108:113   */\n      dup2\n        /* \"#utility.yul\":102:114   */\n      mload\n        /* \"#utility.yul\":92:114   */\n      swap1\n      pop\n        /* \"#utility.yul\":7:121   */\n      swap2\n      swap1\n      pop\n      jump\t// out\n        /* \"#utility.yul\":127:311   */\n    tag_56:\n        /* \"#utility.yul\":226:237   */\n      0x00\n        /* \"#utility.yul\":260:266   */\n      dup3\n        /* \"#utility.yul\":255:258   */\n      dup3\n        /* \"#utility.yul\":248:267   */\n      mstore\n        /* \"#utility.yul\":300:304   */\n      0x20\n        /* \"#utility.yul\":295:298   */\n      dup3\n        /* \"#utility.yul\":291:305   */\n      add\n        /* \"#utility.yul\":276:305   */\n      swap1\n      pop\n        /* \"#utility.yul\":127:311   */\n      swap3\n      swap2\n      pop\n      pop\n      jump\t// out\n        /* \"#utility.yul\":317:449   */\n    tag_57:\n        /* \"#utility.yul\":384:388   */\n      0x00\n        /* \"#utility.yul\":407:410   */\n      dup2\n        /* \"#utility.yul\":399:410   */\n      swap1\n      pop\n        /* \"#utility.yul\":437:441   */\n      0x20\n        /* \"#utility.yul\":432:435   */\n      dup3\n        /* \"#utility.yul\":428:442   */\n      add\n        /* \"#utility.yul\":420:442   */\n      swap1\n      pop\n        /* \"#utility.yul\":317:449   */\n      swap2\n      swap1\n      pop\n      jump\t// out\n        /* \"#utility.yul\":455:532   */\n    tag_58:\n        /* \"#utility.yul\":492:499   */\n      0x00\n        /* \"#utility.yul\":521:526   */\n      dup2\n        /* \"#utility.yul\":510:526   */\n      swap1\n      pop\n        /* \"#utility.yul\":455:532   */\n      swap2\n      swap1\n      pop\n      jump\t// out\n        /* \"#utility.yul\":538:646   */\n    tag_59:\n        /* \"#utility.yul\":615:639   */\n      tag_85\n        /* \"#utility.yul\":633:638   */\n      dup2\n        /* \"#utility.yul\":615:639   */\n      tag_58\n      jump\t// in\n    tag_85:\n        /* \"#utility.yul\":610:613   */\n      dup3\n        /* \"#utility.yul\":603:640   */\n      mstore\n        /* \"#utility.yul\":538:646   */\n      pop\n      pop\n      jump\t// out\n        /* \"#utility.yul\":652:831   */\n    tag_60:\n        /* \"#utility.yul\":721:731   */\n      0x00\n        /* \"#utility.yul\":742:788   */\n      tag_87\n        /* \"#utility.yul\":784:787   */\n      dup4\n        /* \"#utility.yul\":776:782   */\n      dup4\n        /* \"#utility.yul\":742:788   */\n      tag_59\n      jump\t// in\n    tag_87:\n        /* \"#utility.yul\":820:824   */\n      0x20\n        /* \"#utility.yul\":815:818   */\n      dup4\n        /* \"#utility.yul\":811:825   */\n      add\n        /* \"#utility.yul\":797:825   */\n      swap1\n      pop\n        /* \"#utility.yul\":652:831   */\n      swap3\n      swap2\n      pop\n      pop\n      jump\t// out\n        /* \"#utility.yul\":837:950   */\n    tag_61:\n        /* \"#utility.yul\":907:911   */\n      0x00\n        /* \"#utility.yul\":939:943   */\n      0x20\n        /* \"#utility.yul\":934:937   */\n      dup3\n        /* \"#utility.yul\":930:944   */\n      add\n        /* \"#utility.yul\":922:944   */\n      swap1\n      pop\n        /* \"#utility.yul\":837:950   */\n      swap2\n      swap1\n      pop\n      jump\t// out\n        /* \"#utility.yul\":986:1718   */\n    tag_62:\n        /* \"#utility.yul\":1105:1108   */\n      0x00\n        /* \"#utility.yul\":1134:1188   */\n      tag_90\n        /* \"#utility.yul\":1182:1187   */\n      dup3\n        /* \"#utility.yul\":1134:1188   */\n      tag_55\n      jump\t// in\n    tag_90:\n        /* \"#utility.yul\":1204:1290   */\n      tag_91\n        /* \"#utility.yul\":1283:1289   */\n      dup2\n        /* \"#utility.yul\":1278:1281   */\n      dup6\n        /* \"#utility.yul\":1204:1290   */\n      tag_56\n      jump\t// in\n    tag_91:\n        /* \"#utility.yul\":1197:1290   */\n      swap4\n      pop\n        /* \"#utility.yul\":1314:1370   */\n      tag_92\n        /* \"#utility.yul\":1364:1369   */\n      dup4\n        /* \"#utility.yul\":1314:1370   */\n      tag_57\n      jump\t// in\n    tag_92:\n        /* \"#utility.yul\":1393:1400   */\n      dup1\n        /* \"#utility.yul\":1424:1425   */\n      0x00\n        /* \"#utility.yul\":1409:1693   */\n    tag_93:\n        /* \"#utility.yul\":1434:1440   */\n      dup4\n        /* \"#utility.yul\":1431:1432   */\n      dup2\n        /* \"#utility.yul\":1428:1441   */\n      lt\n        /* \"#utility.yul\":1409:1693   */\n      iszero\n      tag_95\n      jumpi\n        /* \"#utility.yul\":1510:1516   */\n      dup2\n        /* \"#utility.yul\":1504:1517   */\n      mload\n        /* \"#utility.yul\":1537:1600   */\n      tag_96\n        /* \"#utility.yul\":1596:1599   */\n      dup9\n        /* \"#utility.yul\":1581:1594   */\n      dup3\n        /* \"#utility.yul\":1537:1600   */\n      tag_60\n      jump\t// in\n    tag_96:\n        /* \"#utility.yul\":1530:1600   */\n      swap8\n      pop\n        /* \"#utility.yul\":1623:1683   */\n      tag_97\n        /* \"#utility.yul\":1676:1682   */\n      dup4\n        /* \"#utility.yul\":1623:1683   */\n      tag_61\n      jump\t// in\n    tag_97:\n        /* \"#utility.yul\":1613:1683   */\n      swap3\n      pop\n        /* \"#utility.yul\":1469:1693   */\n      pop\n        /* \"#utility.yul\":1456:1457   */\n      0x01\n        /* \"#utility.yul\":1453:1454   */\n      dup2\n        /* \"#utility.yul\":1449:1458   */\n      add\n        /* \"#utility.yul\":1444:1458   */\n      swap1\n      pop\n        /* \"#utility.yul\":1409:1693   */\n      jump(tag_93)\n    tag_95:\n        /* \"#utility.yul\":1413:1427   */\n      pop\n        /* \"#utility.yul\":1709:1712   */\n      dup6\n        /* \"#utility.yul\":1702:1712   */\n      swap4\n      pop\n        /* \"#utility.yul\":1110:1718   */\n      pop\n      pop\n      pop\n        /* \"#utility.yul\":986:1718   */\n      swap3\n      swap2\n      pop\n      pop\n      jump\t// out\n        /* \"#utility.yul\":1724:2097   */\n    tag_11:\n        /* \"#utility.yul\":1867:1871   */\n      0x00\n        /* \"#utility.yul\":1905:1907   */\n      0x20\n        /* \"#utility.yul\":1894:1903   */\n      dup3\n        /* \"#utility.yul\":1890:1908   */\n      add\n        /* \"#utility.yul\":1882:1908   */\n      swap1\n      pop\n        /* \"#utility.yul\":1954:1963   */\n      dup2\n        /* \"#utility.yul\":1948:1952   */\n      dup2\n        /* \"#utility.yul\":1944:1964   */\n      sub\n        /* \"#utility.yul\":1940:1941   */\n      0x00\n        /* \"#utility.yul\":1929:1938   */\n      dup4\n        /* \"#utility.yul\":1925:1942   */\n      add\n        /* \"#utility.yul\":1918:1965   */\n      mstore\n        /* \"#utility.yul\":1982:2090   */\n      tag_99\n        /* \"#utility.yul\":2085:2089   */\n      dup2\n        /* \"#utility.yul\":2076:2082   */\n      dup5\n        /* \"#utility.yul\":1982:2090   */\n      tag_62\n      jump\t// in\n    tag_99:\n        /* \"#utility.yul\":1974:2090   */\n      swap1\n      pop\n        /* \"#utility.yul\":1724:2097   */\n      swap3\n      swap2\n      pop\n      pop\n      jump\t// out\n        /* \"#utility.yul\":2103:2221   */\n    tag_63:\n        /* \"#utility.yul\":2190:2214   */\n      tag_101\n        /* \"#utility.yul\":2208:2213   */\n      dup2\n        /* \"#utility.yul\":2190:2214   */\n      tag_58\n      jump\t// in\n    tag_101:\n        /* \"#utility.yul\":2185:2188   */\n      dup3\n        /* \"#utility.yul\":2178:2215   */\n      mstore\n        /* \"#utility.yul\":2103:2221   */\n      pop\n      pop\n      jump\t// out\n        /* \"#utility.yul\":2227:2449   */\n    tag_15:\n        /* \"#utility.yul\":2320:2324   */\n      0x00\n        /* \"#utility.yul\":2358:2360   */\n      0x20\n        /* \"#utility.yul\":2347:2356   */\n      dup3\n        /* \"#utility.yul\":2343:2361   */\n      add\n        /* \"#utility.yul\":2335:2361   */\n      swap1\n      pop\n        /* \"#utility.yul\":2371:2442   */\n      tag_103\n        /* \"#utility.yul\":2439:2440   */\n      0x00\n        /* \"#utility.yul\":2428:2437   */\n      dup4\n        /* \"#utility.yul\":2424:2441   */\n      add\n        /* \"#utility.yul\":2415:2421   */\n      dup5\n        /* \"#utility.yul\":2371:2442   */\n      tag_63\n      jump\t// in\n    tag_103:\n        /* \"#utility.yul\":2227:2449   */\n      swap3\n      swap2\n      pop\n      pop\n      jump\t// out\n        /* \"#utility.yul\":2455:2530   */\n    tag_64:\n        /* \"#utility.yul\":2488:2494   */\n      0x00\n        /* \"#utility.yul\":2521:2523   */\n      0x40\n        /* \"#utility.yul\":2515:2524   */\n      mload\n        /* \"#utility.yul\":2505:2524   */\n      swap1\n      pop\n        /* \"#utility.yul\":2455:2530   */\n      swap1\n      jump\t// out\n        /* \"#utility.yul\":2536:2653   */\n    tag_65:\n        /* \"#utility.yul\":2645:2646   */\n      0x00\n        /* \"#utility.yul\":2642:2643   */\n      dup1\n        /* \"#utility.yul\":2635:2647   */\n      revert\n        /* \"#utility.yul\":2659:2776   */\n    tag_66:\n        /* \"#utility.yul\":2768:2769   */\n      0x00\n        /* \"#utility.yul\":2765:2766   */\n      dup1\n        /* \"#utility.yul\":2758:2770   */\n      revert\n        /* \"#utility.yul\":2782:2904   */\n    tag_67:\n        /* \"#utility.yul\":2855:2879   */\n      tag_108\n        /* \"#utility.yul\":2873:2878   */\n      dup2\n        /* \"#utility.yul\":2855:2879   */\n      tag_58\n      jump\t// in\n    tag_108:\n        /* \"#utility.yul\":2848:2853   */\n      dup2\n        /* \"#utility.yul\":2845:2880   */\n      eq\n        /* \"#utility.yul\":2835:2898   */\n      tag_109\n      jumpi\n        /* \"#utility.yul\":2894:2895   */\n      0x00\n        /* \"#utility.yul\":2891:2892   */\n      dup1\n        /* \"#utility.yul\":2884:2896   */\n      revert\n        /* \"#utility.yul\":2835:2898   */\n    tag_109:\n        /* \"#utility.yul\":2782:2904   */\n      pop\n      jump\t// out\n        /* \"#utility.yul\":2910:3049   */\n    tag_68:\n        /* \"#utility.yul\":2956:2961   */\n      0x00\n        /* \"#utility.yul\":2994:3000   */\n      dup2\n        /* \"#utility.yul\":2981:3001   */\n      calldataload\n        /* \"#utility.yul\":2972:3001   */\n      swap1\n      pop\n        /* \"#utility.yul\":3010:3043   */\n      tag_111\n        /* \"#utility.yul\":3037:3042   */\n      dup2\n        /* \"#utility.yul\":3010:3043   */\n      tag_67\n      jump\t// in\n    tag_111:\n        /* \"#utility.yul\":2910:3049   */\n      swap3\n      swap2\n      pop\n      pop\n      jump\t// out\n        /* \"#utility.yul\":3055:3384   */\n    tag_18:\n        /* \"#utility.yul\":3114:3120   */\n      0x00\n        /* \"#utility.yul\":3163:3165   */\n      0x20\n        /* \"#utility.yul\":3151:3160   */\n      dup3\n        /* \"#utility.yul\":3142:3149   */\n      dup5\n        /* \"#utility.yul\":3138:3161   */\n      sub\n        /* \"#utility.yul\":3134:3166   */\n      slt\n        /* \"#utility.yul\":3131:3250   */\n      iszero\n      tag_113\n      jumpi\n        /* \"#utility.yul\":3169:3248   */\n      tag_114\n      tag_65\n      jump\t// in\n    tag_114:\n        /* \"#utility.yul\":3131:3250   */\n    tag_113:\n        /* \"#utility.yul\":3289:3290   */\n      0x00\n        /* \"#utility.yul\":3314:3367   */\n      tag_115\n        /* \"#utility.yul\":3359:3366   */\n      dup5\n        /* \"#utility.yul\":3350:3356   */\n      dup3\n        /* \"#utility.yul\":3339:3348   */\n      dup6\n        /* \"#utility.yul\":3335:3357   */\n      add\n        /* \"#utility.yul\":3314:3367   */\n      tag_68\n      jump\t// in\n    tag_115:\n        /* \"#utility.yul\":3304:3367   */\n      swap2\n      pop\n        /* \"#utility.yul\":3260:3377   */\n      pop\n        /* \"#utility.yul\":3055:3384   */\n      swap3\n      swap2\n      pop\n      pop\n      jump\t// out\n        /* \"#utility.yul\":3390:3507   */\n    tag_69:\n        /* \"#utility.yul\":3499:3500   */\n      0x00\n        /* \"#utility.yul\":3496:3497   */\n      dup1\n        /* \"#utility.yul\":3489:3501   */\n      revert\n        /* \"#utility.yul\":3513:3615   */\n    tag_70:\n        /* \"#utility.yul\":3554:3560   */\n      0x00\n        /* \"#utility.yul\":3605:3607   */\n      0x1f\n        /* \"#utility.yul\":3601:3608   */\n      not\n        /* \"#utility.yul\":3596:3598   */\n      0x1f\n        /* \"#utility.yul\":3589:3594   */\n      dup4\n        /* \"#utility.yul\":3585:3599   */\n      add\n        /* \"#utility.yul\":3581:3609   */\n      and\n        /* \"#utility.yul\":3571:3609   */\n      swap1\n      pop\n        /* \"#utility.yul\":3513:3615   */\n      swap2\n      swap1\n      pop\n      jump\t// out\n        /* \"#utility.yul\":3621:3801   */\n    tag_71:\n        /* \"#utility.yul\":3669:3746   */\n      0x4e487b7100000000000000000000000000000000000000000000000000000000\n        /* \"#utility.yul\":3666:3667   */\n      0x00\n        /* \"#utility.yul\":3659:3747   */\n      mstore\n        /* \"#utility.yul\":3766:3770   */\n      0x41\n        /* \"#utility.yul\":3763:3764   */\n      0x04\n        /* \"#utility.yul\":3756:3771   */\n      mstore\n        /* \"#utility.yul\":3790:3794   */\n      0x24\n        /* \"#utility.yul\":3787:3788   */\n      0x00\n        /* \"#utility.yul\":3780:3795   */\n      revert\n        /* \"#utility.yul\":3807:4088   */\n    tag_72:\n        /* \"#utility.yul\":3890:3917   */\n      tag_120\n        /* \"#utility.yul\":3912:3916   */\n      dup3\n        /* \"#utility.yul\":3890:3917   */\n      tag_70\n      jump\t// in\n    tag_120:\n        /* \"#utility.yul\":3882:3888   */\n      dup2\n        /* \"#utility.yul\":3878:3918   */\n      add\n        /* \"#utility.yul\":4020:4026   */\n      dup2\n        /* \"#utility.yul\":4008:4018   */\n      dup2\n        /* \"#utility.yul\":4005:4027   */\n      lt\n        /* \"#utility.yul\":3984:4002   */\n      0xffffffffffffffff\n        /* \"#utility.yul\":3972:3982   */\n      dup3\n        /* \"#utility.yul\":3969:4003   */\n      gt\n        /* \"#utility.yul\":3966:4028   */\n      or\n        /* \"#utility.yul\":3963:4051   */\n      iszero\n      tag_121\n      jumpi\n        /* \"#utility.yul\":4031:4049   */\n      tag_122\n      tag_71\n      jump\t// in\n    tag_122:\n        /* \"#utility.yul\":3963:4051   */\n    tag_121:\n        /* \"#utility.yul\":4071:4081   */\n      dup1\n        /* \"#utility.yul\":4067:4069   */\n      0x40\n        /* \"#utility.yul\":4060:4082   */\n      mstore\n        /* \"#utility.yul\":3850:4088   */\n      pop\n        /* \"#utility.yul\":3807:4088   */\n      pop\n      pop\n      jump\t// out\n        /* \"#utility.yul\":4094:4223   */\n    tag_73:\n        /* \"#utility.yul\":4128:4134   */\n      0x00\n        /* \"#utility.yul\":4155:4175   */\n      tag_124\n      tag_64\n      jump\t// in\n    tag_124:\n        /* \"#utility.yul\":4145:4175   */\n      swap1\n      pop\n        /* \"#utility.yul\":4184:4217   */\n      tag_125\n        /* \"#utility.yul\":4212:4216   */\n      dup3\n        /* \"#utility.yul\":4204:4210   */\n      dup3\n        /* \"#utility.yul\":4184:4217   */\n      tag_72\n      jump\t// in\n    tag_125:\n        /* \"#utility.yul\":4094:4223   */\n      swap2\n      swap1\n      pop\n      jump\t// out\n        /* \"#utility.yul\":4229:4540   */\n    tag_74:\n        /* \"#utility.yul\":4306:4310   */\n      0x00\n        /* \"#utility.yul\":4396:4414   */\n      0xffffffffffffffff\n        /* \"#utility.yul\":4388:4394   */\n      dup3\n        /* \"#utility.yul\":4385:4415   */\n      gt\n        /* \"#utility.yul\":4382:4438   */\n      iszero\n      tag_127\n      jumpi\n        /* \"#utility.yul\":4418:4436   */\n      tag_128\n      tag_71\n      jump\t// in\n    tag_128:\n        /* \"#utility.yul\":4382:4438   */\n    tag_127:\n        /* \"#utility.yul\":4468:4472   */\n      0x20\n        /* \"#utility.yul\":4460:4466   */\n      dup3\n        /* \"#utility.yul\":4456:4473   */\n      mul\n        /* \"#utility.yul\":4448:4473   */\n      swap1\n      pop\n        /* \"#utility.yul\":4528:4532   */\n      0x20\n        /* \"#utility.yul\":4522:4526   */\n      dup2\n        /* \"#utility.yul\":4518:4533   */\n      add\n        /* \"#utility.yul\":4510:4533   */\n      swap1\n      pop\n        /* \"#utility.yul\":4229:4540   */\n      swap2\n      swap1\n      pop\n      jump\t// out\n        /* \"#utility.yul\":4546:4663   */\n    tag_75:\n        /* \"#utility.yul\":4655:4656   */\n      0x00\n        /* \"#utility.yul\":4652:4653   */\n      dup1\n        /* \"#utility.yul\":4645:4657   */\n      revert\n        /* \"#utility.yul\":4686:5396   */\n    tag_76:\n        /* \"#utility.yul\":4782:4787   */\n      0x00\n        /* \"#utility.yul\":4807:4888   */\n      tag_131\n        /* \"#utility.yul\":4823:4887   */\n      tag_132\n        /* \"#utility.yul\":4880:4886   */\n      dup5\n        /* \"#utility.yul\":4823:4887   */\n      tag_74\n      jump\t// in\n    tag_132:\n        /* \"#utility.yul\":4807:4888   */\n      tag_73\n      jump\t// in\n    tag_131:\n        /* \"#utility.yul\":4798:4888   */\n      swap1\n      pop\n        /* \"#utility.yul\":4908:4913   */\n      dup1\n        /* \"#utility.yul\":4937:4943   */\n      dup4\n        /* \"#utility.yul\":4930:4935   */\n      dup3\n        /* \"#utility.yul\":4923:4944   */\n      mstore\n        /* \"#utility.yul\":4971:4975   */\n      0x20\n        /* \"#utility.yul\":4964:4969   */\n      dup3\n        /* \"#utility.yul\":4960:4976   */\n      add\n        /* \"#utility.yul\":4953:4976   */\n      swap1\n      pop\n        /* \"#utility.yul\":5024:5028   */\n      0x20\n        /* \"#utility.yul\":5016:5022   */\n      dup5\n        /* \"#utility.yul\":5012:5029   */\n      mul\n        /* \"#utility.yul\":5004:5010   */\n      dup4\n        /* \"#utility.yul\":5000:5030   */\n      add\n        /* \"#utility.yul\":5053:5056   */\n      dup6\n        /* \"#utility.yul\":5045:5051   */\n      dup2\n        /* \"#utility.yul\":5042:5057   */\n      gt\n        /* \"#utility.yul\":5039:5161   */\n      iszero\n      tag_133\n      jumpi\n        /* \"#utility.yul\":5072:5151   */\n      tag_134\n      tag_75\n      jump\t// in\n    tag_134:\n        /* \"#utility.yul\":5039:5161   */\n    tag_133:\n        /* \"#utility.yul\":5187:5193   */\n      dup4\n        /* \"#utility.yul\":5170:5390   */\n    tag_135:\n        /* \"#utility.yul\":5204:5210   */\n      dup2\n        /* \"#utility.yul\":5199:5202   */\n      dup2\n        /* \"#utility.yul\":5196:5211   */\n      lt\n        /* \"#utility.yul\":5170:5390   */\n      iszero\n      tag_137\n      jumpi\n        /* \"#utility.yul\":5279:5282   */\n      dup1\n        /* \"#utility.yul\":5308:5345   */\n      tag_138\n        /* \"#utility.yul\":5341:5344   */\n      dup9\n        /* \"#utility.yul\":5329:5339   */\n      dup3\n        /* \"#utility.yul\":5308:5345   */\n      tag_68\n      jump\t// in\n    tag_138:\n        /* \"#utility.yul\":5303:5306   */\n      dup5\n        /* \"#utility.yul\":5296:5346   */\n      mstore\n        /* \"#utility.yul\":5375:5379   */\n      0x20\n        /* \"#utility.yul\":5370:5373   */\n      dup5\n        /* \"#utility.yul\":5366:5380   */\n      add\n        /* \"#utility.yul\":5359:5380   */\n      swap4\n      pop\n        /* \"#utility.yul\":5246:5390   */\n      pop\n        /* \"#utility.yul\":5230:5234   */\n      0x20\n        /* \"#utility.yul\":5225:5228   */\n      dup2\n        /* \"#utility.yul\":5221:5235   */\n      add\n        /* \"#utility.yul\":5214:5235   */\n      swap1\n      pop\n        /* \"#utility.yul\":5170:5390   */\n      jump(tag_135)\n    tag_137:\n        /* \"#utility.yul\":5174:5195   */\n      pop\n        /* \"#utility.yul\":4788:5396   */\n      pop\n      pop\n        /* \"#utility.yul\":4686:5396   */\n      swap4\n      swap3\n      pop\n      pop\n      pop\n      jump\t// out\n        /* \"#utility.yul\":5419:5789   */\n    tag_77:\n        /* \"#utility.yul\":5490:5495   */\n      0x00\n        /* \"#utility.yul\":5539:5542   */\n      dup3\n        /* \"#utility.yul\":5532:5536   */\n      0x1f\n        /* \"#utility.yul\":5524:5530   */\n      dup4\n        /* \"#utility.yul\":5520:5537   */\n      add\n        /* \"#utility.yul\":5516:5543   */\n      slt\n        /* \"#utility.yul\":5506:5628   */\n      tag_140\n      jumpi\n        /* \"#utility.yul\":5547:5626   */\n      tag_141\n      tag_69\n      jump\t// in\n    tag_141:\n        /* \"#utility.yul\":5506:5628   */\n    tag_140:\n        /* \"#utility.yul\":5664:5670   */\n      dup2\n        /* \"#utility.yul\":5651:5671   */\n      calldataload\n        /* \"#utility.yul\":5689:5783   */\n      tag_142\n        /* \"#utility.yul\":5779:5782   */\n      dup5\n        /* \"#utility.yul\":5771:5777   */\n      dup3\n        /* \"#utility.yul\":5764:5768   */\n      0x20\n        /* \"#utility.yul\":5756:5762   */\n      dup7\n        /* \"#utility.yul\":5752:5769   */\n      add\n        /* \"#utility.yul\":5689:5783   */\n      tag_76\n      jump\t// in\n    tag_142:\n        /* \"#utility.yul\":5680:5783   */\n      swap2\n      pop\n        /* \"#utility.yul\":5496:5789   */\n      pop\n        /* \"#utility.yul\":5419:5789   */\n      swap3\n      swap2\n      pop\n      pop\n      jump\t// out\n        /* \"#utility.yul\":5795:6334   */\n    tag_23:\n        /* \"#utility.yul\":5879:5885   */\n      0x00\n        /* \"#utility.yul\":5928:5930   */\n      0x20\n        /* \"#utility.yul\":5916:5925   */\n      dup3\n        /* \"#utility.yul\":5907:5914   */\n      dup5\n        /* \"#utility.yul\":5903:5926   */\n      sub\n        /* \"#utility.yul\":5899:5931   */\n      slt\n        /* \"#utility.yul\":5896:6015   */\n      iszero\n      tag_144\n      jumpi\n        /* \"#utility.yul\":5934:6013   */\n      tag_145\n      tag_65\n      jump\t// in\n    tag_145:\n        /* \"#utility.yul\":5896:6015   */\n    tag_144:\n        /* \"#utility.yul\":6082:6083   */\n      0x00\n        /* \"#utility.yul\":6071:6080   */\n      dup3\n        /* \"#utility.yul\":6067:6084   */\n      add\n        /* \"#utility.yul\":6054:6085   */\n      calldataload\n        /* \"#utility.yul\":6112:6130   */\n      0xffffffffffffffff\n        /* \"#utility.yul\":6104:6110   */\n      dup2\n        /* \"#utility.yul\":6101:6131   */\n      gt\n        /* \"#utility.yul\":6098:6215   */\n      iszero\n      tag_146\n      jumpi\n        /* \"#utility.yul\":6134:6213   */\n      tag_147\n      tag_66\n      jump\t// in\n    tag_147:\n        /* \"#utility.yul\":6098:6215   */\n    tag_146:\n        /* \"#utility.yul\":6239:6317   */\n      tag_148\n        /* \"#utility.yul\":6309:6316   */\n      dup5\n        /* \"#utility.yul\":6300:6306   */\n      dup3\n        /* \"#utility.yul\":6289:6298   */\n      dup6\n        /* \"#utility.yul\":6285:6307   */\n      add\n        /* \"#utility.yul\":6239:6317   */\n      tag_77\n      jump\t// in\n    tag_148:\n        /* \"#utility.yul\":6229:6317   */\n      swap2\n      pop\n        /* \"#utility.yul\":6025:6327   */\n      pop\n        /* \"#utility.yul\":5795:6334   */\n      swap3\n      swap2\n      pop\n      pop\n      jump\t// out\n        /* \"#utility.yul\":6340:6520   */\n    tag_42:\n        /* \"#utility.yul\":6388:6465   */\n      0x4e487b7100000000000000000000000000000000000000000000000000000000\n        /* \"#utility.yul\":6385:6386   */\n      0x00\n        /* \"#utility.yul\":6378:6466   */\n      mstore\n        /* \"#utility.yul\":6485:6489   */\n      0x32\n        /* \"#utility.yul\":6482:6483   */\n      0x04\n        /* \"#utility.yul\":6475:6490   */\n      mstore\n        /* \"#utility.yul\":6509:6513   */\n      0x24\n        /* \"#utility.yul\":6506:6507   */\n      0x00\n        /* \"#utility.yul\":6499:6514   */\n      revert\n        /* \"#utility.yul\":6526:6706   */\n    tag_78:\n        /* \"#utility.yul\":6574:6651   */\n      0x4e487b7100000000000000000000000000000000000000000000000000000000\n        /* \"#utility.yul\":6571:6572   */\n      0x00\n        /* \"#utility.yul\":6564:6652   */\n      mstore\n        /* \"#utility.yul\":6671:6675   */\n      0x11\n        /* \"#utility.yul\":6668:6669   */\n      0x04\n        /* \"#utility.yul\":6661:6676   */\n      mstore\n        /* \"#utility.yul\":6695:6699   */\n      0x24\n        /* \"#utility.yul\":6692:6693   */\n      0x00\n        /* \"#utility.yul\":6685:6700   */\n      revert\n        /* \"#utility.yul\":6712:6903   */\n    tag_45:\n        /* \"#utility.yul\":6752:6755   */\n      0x00\n        /* \"#utility.yul\":6771:6791   */\n      tag_152\n        /* \"#utility.yul\":6789:6790   */\n      dup3\n        /* \"#utility.yul\":6771:6791   */\n      tag_58\n      jump\t// in\n    tag_152:\n        /* \"#utility.yul\":6766:6791   */\n      swap2\n      pop\n        /* \"#utility.yul\":6805:6825   */\n      tag_153\n        /* \"#utility.yul\":6823:6824   */\n      dup4\n        /* \"#utility.yul\":6805:6825   */\n      tag_58\n      jump\t// in\n    tag_153:\n        /* \"#utility.yul\":6800:6825   */\n      swap3\n      pop\n        /* \"#utility.yul\":6848:6849   */\n      dup3\n        /* \"#utility.yul\":6845:6846   */\n      dup3\n        /* \"#utility.yul\":6841:6850   */\n      add\n        /* \"#utility.yul\":6834:6850   */\n      swap1\n      pop\n        /* \"#utility.yul\":6869:6872   */\n      dup1\n        /* \"#utility.yul\":6866:6867   */\n      dup3\n        /* \"#utility.yul\":6863:6873   */\n      gt\n        /* \"#utility.yul\":6860:6896   */\n      iszero\n      tag_154\n      jumpi\n        /* \"#utility.yul\":6876:6894   */\n      tag_155\n      tag_78\n      jump\t// in\n    tag_155:\n        /* \"#utility.yul\":6860:6896   */\n    tag_154:\n        /* \"#utility.yul\":6712:6903   */\n      swap3\n      swap2\n      pop\n      pop\n      jump\t// out\n        /* \"#utility.yul\":6909:7142   */\n    tag_47:\n        /* \"#utility.yul\":6948:6951   */\n      0x00\n        /* \"#utility.yul\":6971:6995   */\n      tag_157\n        /* \"#utility.yul\":6989:6994   */\n      dup3\n        /* \"#utility.yul\":6971:6995   */\n      tag_58\n      jump\t// in\n    tag_157:\n        /* \"#utility.yul\":6962:6995   */\n      swap2\n      pop\n        /* \"#utility.yul\":7017:7083   */\n      0xffffffffffffffffffffffffffffffffffffffffffffffffffffffffffffffff\n        /* \"#utility.yul\":7010:7015   */\n      dup3\n        /* \"#utility.yul\":7007:7084   */\n      sub\n        /* \"#utility.yul\":7004:7107   */\n      tag_158\n      jumpi\n        /* \"#utility.yul\":7087:7105   */\n      tag_159\n      tag_78\n      jump\t// in\n    tag_159:\n        /* \"#utility.yul\":7004:7107   */\n    tag_158:\n        /* \"#utility.yul\":7134:7135   */\n      0x01\n        /* \"#utility.yul\":7127:7132   */\n      dup3\n        /* \"#utility.yul\":7123:7136   */\n      add\n        /* \"#utility.yul\":7116:7136   */\n      swap1\n      pop\n        /* \"#utility.yul\":6909:7142   */\n      swap2\n      swap1\n      pop\n      jump\t// out\n\n    auxdata: 0xa2646970667358221220de4b74d6215d0d39d272c1e2eb1f39ca00c74bc2970660233cde0c90618f85a164736f6c63430008120033\n}\n",
				"bytecode": {
					"linkReferences": {},
					"object": "6080604052600060015534801561001557600080fd5b50610688806100256000396000f3fe608060405234801561001057600080fd5b50600436106100575760003560e01c80630c1b7c1e1461005c5780630c3263fb1461007a57806371e5ee5f14610098578063e508f2b3146100c8578063ebebf2bd146100e4575b600080fd5b6100646100ee565b604051610071919061031d565b60405180910390f35b610082610146565b60405161008f919061034e565b60405180910390f35b6100b260048036038101906100ad91906103a9565b610150565b6040516100bf919061034e565b60405180910390f35b6100e260048036038101906100dd919061052f565b610174565b005b6100ec61018e565b005b6060600080548060200260200160405190810160405280929190818152602001828054801561013c57602002820191906000526020600020905b815481526020019060010190808311610128575b5050505050905090565b6000600154905090565b6000818154811061016057600080fd5b906000526020600020016000915090505481565b806000908051906020019061018a9291906101eb565b5050565b60005b6000805490508110156101e857600081815481106101b2576101b1610578565b5b9060005260206000200154600160008282546101ce91906105d6565b9250508190555080806101e09061060a565b915050610191565b50565b828054828255906000526020600020908101928215610227579160200282015b8281111561022657825182559160200191906001019061020b565b5b5090506102349190610238565b5090565b5b80821115610251576000816000905550600101610239565b5090565b600081519050919050565b600082825260208201905092915050565b6000819050602082019050919050565b6000819050919050565b61029481610281565b82525050565b60006102a6838361028b565b60208301905092915050565b6000602082019050919050565b60006102ca82610255565b6102d48185610260565b93506102df83610271565b8060005b838110156103105781516102f7888261029a565b9750610302836102b2565b9250506001810190506102e3565b5085935050505092915050565b6000602082019050818103600083015261033781846102bf565b905092915050565b61034881610281565b82525050565b6000602082019050610363600083018461033f565b92915050565b6000604051905090565b600080fd5b600080fd5b61038681610281565b811461039157600080fd5b50565b6000813590506103a38161037d565b92915050565b6000602082840312156103bf576103be610373565b5b60006103cd84828501610394565b91505092915050565b600080fd5b6000601f19601f8301169050919050565b7f4e487b7100000000000000000000000000000000000000000000000000000000600052604160045260246000fd5b610424826103db565b810181811067ffffffffffffffff82111715610443576104426103ec565b5b80604052505050565b6000610456610369565b9050610462828261041b565b919050565b600067ffffffffffffffff821115610482576104816103ec565b5b602082029050602081019050919050565b600080fd5b60006104ab6104a684610467565b61044c565b905080838252602082019050602084028301858111156104ce576104cd610493565b5b835b818110156104f757806104e38882610394565b8452602084019350506020810190506104d0565b5050509392505050565b600082601f830112610516576105156103d6565b5b8135610526848260208601610498565b91505092915050565b60006020828403121561054557610544610373565b5b600082013567ffffffffffffffff81111561056357610562610378565b5b61056f84828501610501565b91505092915050565b7f4e487b7100000000000000000000000000000000000000000000000000000000600052603260045260246000fd5b7f4e487b7100000000000000000000000000000000000000000000000000000000600052601160045260246000fd5b60006105e182610281565b91506105ec83610281565b9250828201905080821115610604576106036105a7565b5b92915050565b600061061582610281565b91507fffffffffffffffffffffffffffffffffffffffffffffffffffffffffffffffff8203610647576106466105a7565b5b60018201905091905056fea2646970667358221220de4b74d6215d0d39d272c1e2eb1f39ca00c74bc2970660233cde0c90618f85a164736f6c63430008120033",
					"opcodes": "PUSH1 0x80 PUSH1 0x40 MSTORE PUSH1 0x0 PUSH1 0x1 SSTORE CALLVALUE DUP1 ISZERO PUSH2 0x15 JUMPI PUSH1 0x0 DUP1 REVERT JUMPDEST POP PUSH2 0x688 DUP1 PUSH2 0x25 PUSH1 0x0 CODECOPY PUSH1 0x0 RETURN INVALID PUSH1 0x80 PUSH1 0x40 MSTORE CALLVALUE DUP1 ISZERO PUSH2 0x10 JUMPI PUSH1 0x0 DUP1 REVERT JUMPDEST POP PUSH1 0x4 CALLDATASIZE LT PUSH2 0x57 JUMPI PUSH1 0x0 CALLDATALOAD PUSH1 0xE0 SHR DUP1 PUSH4 0xC1B7C1E EQ PUSH2 0x5C JUMPI DUP1 PUSH4 0xC3263FB EQ PUSH2 0x7A JUMPI DUP1 PUSH4 0x71E5EE5F EQ PUSH2 0x98 JUMPI DUP1 PUSH4 0xE508F2B3 EQ PUSH2 0xC8 JUMPI DUP1 PUSH4 0xEBEBF2BD EQ PUSH2 0xE4 JUMPI JUMPDEST PUSH1 0x0 DUP1 REVERT JUMPDEST PUSH2 0x64 PUSH2 0xEE JUMP JUMPDEST PUSH1 0x40 MLOAD PUSH2 0x71 SWAP2 SWAP1 PUSH2 0x31D JUMP JUMPDEST PUSH1 0x40 MLOAD DUP1 SWAP2 SUB SWAP1 RETURN JUMPDEST PUSH2 0x82 PUSH2 0x146 JUMP JUMPDEST PUSH1 0x40 MLOAD PUSH2 0x8F SWAP2 SWAP1 PUSH2 0x34E JUMP JUMPDEST PUSH1 0x40 MLOAD DUP1 SWAP2 SUB SWAP1 RETURN JUMPDEST PUSH2 0xB2 PUSH1 0x4 DUP1 CALLDATASIZE SUB DUP2 ADD SWAP1 PUSH2 0xAD SWAP2 SWAP1 PUSH2 0x3A9 JUMP JUMPDEST PUSH2 0x150 JUMP JUMPDEST PUSH1 0x40 MLOAD PUSH2 0xBF SWAP2 SWAP1 PUSH2 0x34E JUMP JUMPDEST PUSH1 0x40 MLOAD DUP1 SWAP2 SUB SWAP1 RETURN JUMPDEST PUSH2 0xE2 PUSH1 0x4 DUP1 CALLDATASIZE SUB DUP2 ADD SWAP1 PUSH2 0xDD SWAP2 SWAP1 PUSH2 0x52F JUMP JUMPDEST PUSH2 0x174 JUMP JUMPDEST STOP JUMPDEST PUSH2 0xEC PUSH2 0x18E JUMP JUMPDEST STOP JUMPDEST PUSH1 0x60 PUSH1 0x0 DUP1 SLOAD DUP1 PUSH1 0x20 MUL PUSH1 0x20 ADD PUSH1 0x40 MLOAD SWAP1 DUP2 ADD PUSH1 0x40 MSTORE DUP1 SWAP3 SWAP2 SWAP1 DUP2 DUP2 MSTORE PUSH1 0x20 ADD DUP3 DUP1 SLOAD DUP1 ISZERO PUSH2 0x13C JUMPI PUSH1 0x20 MUL DUP3 ADD SWAP2 SWAP1 PUSH1 0x0 MSTORE PUSH1 0x20 PUSH1 0x0 KECCAK256 SWAP1 JUMPDEST DUP2 SLOAD DUP2 MSTORE PUSH1 0x20 ADD SWAP1 PUSH1 0x1 ADD SWAP1 DUP1 DUP4 GT PUSH2 0x128 JUMPI JUMPDEST POP POP POP POP POP SWAP1 POP SWAP1 JUMP JUMPDEST PUSH1 0x0 PUSH1 0x1 SLOAD SWAP1 POP SWAP1 JUMP JUMPDEST PUSH1 0x0 DUP2 DUP2 SLOAD DUP2 LT PUSH2 0x160 JUMPI PUSH1 0x0 DUP1 REVERT JUMPDEST SWAP1 PUSH1 0x0 MSTORE PUSH1 0x20 PUSH1 0x0 KECCAK256 ADD PUSH1 0x0 SWAP2 POP SWAP1 POP SLOAD DUP2 JUMP JUMPDEST DUP1 PUSH1 0x0 SWAP1 DUP1 MLOAD SWAP1 PUSH1 0x20 ADD SWAP1 PUSH2 0x18A SWAP3 SWAP2 SWAP1 PUSH2 0x1EB JUMP JUMPDEST POP POP JUMP JUMPDEST PUSH1 0x0 JUMPDEST PUSH1 0x0 DUP1 SLOAD SWAP1 POP DUP2 LT ISZERO PUSH2 0x1E8 JUMPI PUSH1 0x0 DUP2 DUP2 SLOAD DUP2 LT PUSH2 0x1B2 JUMPI PUSH2 0x1B1 PUSH2 0x578 JUMP JUMPDEST JUMPDEST SWAP1 PUSH1 0x0 MSTORE PUSH1 0x20 PUSH1 0x0 KECCAK256 ADD SLOAD PUSH1 0x1 PUSH1 0x0 DUP3 DUP3 SLOAD PUSH2 0x1CE SWAP2 SWAP1 PUSH2 0x5D6 JUMP JUMPDEST SWAP3 POP POP DUP2 SWAP1 SSTORE POP DUP1 DUP1 PUSH2 0x1E0 SWAP1 PUSH2 0x60A JUMP JUMPDEST SWAP2 POP POP PUSH2 0x191 JUMP JUMPDEST POP JUMP JUMPDEST DUP3 DUP1 SLOAD DUP3 DUP3 SSTORE SWAP1 PUSH1 0x0 MSTORE PUSH1 0x20 PUSH1 0x0 KECCAK256 SWAP1 DUP2 ADD SWAP3 DUP3 ISZERO PUSH2 0x227 JUMPI SWAP2 PUSH1 0x20 MUL DUP3 ADD JUMPDEST DUP3 DUP2 GT ISZERO PUSH2 0x226 JUMPI DUP3 MLOAD DUP3 SSTORE SWAP2 PUSH1 0x20 ADD SWAP2 SWAP1 PUSH1 0x1 ADD SWAP1 PUSH2 0x20B JUMP JUMPDEST JUMPDEST POP SWAP1 POP PUSH2 0x234 SWAP2 SWAP1 PUSH2 0x238 JUMP JUMPDEST POP SWAP1 JUMP JUMPDEST JUMPDEST DUP1 DUP3 GT ISZERO PUSH2 0x251 JUMPI PUSH1 0x0 DUP2 PUSH1 0x0 SWAP1 SSTORE POP PUSH1 0x1 ADD PUSH2 0x239 JUMP JUMPDEST POP SWAP1 JUMP JUMPDEST PUSH1 0x0 DUP2 MLOAD SWAP1 POP SWAP2 SWAP1 POP JUMP JUMPDEST PUSH1 0x0 DUP3 DUP3 MSTORE PUSH1 0x20 DUP3 ADD SWAP1 POP SWAP3 SWAP2 POP POP JUMP JUMPDEST PUSH1 0x0 DUP2 SWAP1 POP PUSH1 0x20 DUP3 ADD SWAP1 POP SWAP2 SWAP1 POP JUMP JUMPDEST PUSH1 0x0 DUP2 SWAP1 POP SWAP2 SWAP1 POP JUMP JUMPDEST PUSH2 0x294 DUP2 PUSH2 0x281 JUMP JUMPDEST DUP3 MSTORE POP POP JUMP JUMPDEST PUSH1 0x0 PUSH2 0x2A6 DUP4 DUP4 PUSH2 0x28B JUMP JUMPDEST PUSH1 0x20 DUP4 ADD SWAP1 POP SWAP3 SWAP2 POP POP JUMP JUMPDEST PUSH1 0x0 PUSH1 0x20 DUP3 ADD SWAP1 POP SWAP2 SWAP1 POP JUMP JUMPDEST PUSH1 0x0 PUSH2 0x2CA DUP3 PUSH2 0x255 JUMP JUMPDEST PUSH2 0x2D4 DUP2 DUP6 PUSH2 0x260 JUMP JUMPDEST SWAP4 POP PUSH2 0x2DF DUP4 PUSH2 0x271 JUMP JUMPDEST DUP1 PUSH1 0x0 JUMPDEST DUP4 DUP2 LT ISZERO PUSH2 0x310 JUMPI DUP2 MLOAD PUSH2 0x2F7 DUP9 DUP3 PUSH2 0x29A JUMP JUMPDEST SWAP8 POP PUSH2 0x302 DUP4 PUSH2 0x2B2 JUMP JUMPDEST SWAP3 POP POP PUSH1 0x1 DUP2 ADD SWAP1 POP PUSH2 0x2E3 JUMP JUMPDEST POP DUP6 SWAP4 POP POP POP POP SWAP3 SWAP2 POP POP JUMP JUMPDEST PUSH1 0x0 PUSH1 0x20 DUP3 ADD SWAP1 POP DUP2 DUP2 SUB PUSH1 0x0 DUP4 ADD MSTORE PUSH2 0x337 DUP2 DUP5 PUSH2 0x2BF JUMP JUMPDEST SWAP1 POP SWAP3 SWAP2 POP POP JUMP JUMPDEST PUSH2 0x348 DUP2 PUSH2 0x281 JUMP JUMPDEST DUP3 MSTORE POP POP JUMP JUMPDEST PUSH1 0x0 PUSH1 0x20 DUP3 ADD SWAP1 POP PUSH2 0x363 PUSH1 0x0 DUP4 ADD DUP5 PUSH2 0x33F JUMP JUMPDEST SWAP3 SWAP2 POP POP JUMP JUMPDEST PUSH1 0x0 PUSH1 0x40 MLOAD SWAP1 POP SWAP1 JUMP JUMPDEST PUSH1 0x0 DUP1 REVERT JUMPDEST PUSH1 0x0 DUP1 REVERT JUMPDEST PUSH2 0x386 DUP2 PUSH2 0x281 JUMP JUMPDEST DUP2 EQ PUSH2 0x391 JUMPI PUSH1 0x0 DUP1 REVERT JUMPDEST POP JUMP JUMPDEST PUSH1 0x0 DUP2 CALLDATALOAD SWAP1 POP PUSH2 0x3A3 DUP2 PUSH2 0x37D JUMP JUMPDEST SWAP3 SWAP2 POP POP JUMP JUMPDEST PUSH1 0x0 PUSH1 0x20 DUP3 DUP5 SUB SLT ISZERO PUSH2 0x3BF JUMPI PUSH2 0x3BE PUSH2 0x373 JUMP JUMPDEST JUMPDEST PUSH1 0x0 PUSH2 0x3CD DUP5 DUP3 DUP6 ADD PUSH2 0x394 JUMP JUMPDEST SWAP2 POP POP SWAP3 SWAP2 POP POP JUMP JUMPDEST PUSH1 0x0 DUP1 REVERT JUMPDEST PUSH1 0x0 PUSH1 0x1F NOT PUSH1 0x1F DUP4 ADD AND SWAP1 POP SWAP2 SWAP1 POP JUMP JUMPDEST PUSH32 0x4E487B7100000000000000000000000000000000000000000000000000000000 PUSH1 0x0 MSTORE PUSH1 0x41 PUSH1 0x4 MSTORE PUSH1 0x24 PUSH1 0x0 REVERT JUMPDEST PUSH2 0x424 DUP3 PUSH2 0x3DB JUMP JUMPDEST DUP2 ADD DUP2 DUP2 LT PUSH8 0xFFFFFFFFFFFFFFFF DUP3 GT OR ISZERO PUSH2 0x443 JUMPI PUSH2 0x442 PUSH2 0x3EC JUMP JUMPDEST JUMPDEST DUP1 PUSH1 0x40 MSTORE POP POP POP JUMP JUMPDEST PUSH1 0x0 PUSH2 0x456 PUSH2 0x369 JUMP JUMPDEST SWAP1 POP PUSH2 0x462 DUP3 DUP3 PUSH2 0x41B JUMP JUMPDEST SWAP2 SWAP1 POP JUMP JUMPDEST PUSH1 0x0 PUSH8 0xFFFFFFFFFFFFFFFF DUP3 GT ISZERO PUSH2 0x482 JUMPI PUSH2 0x481 PUSH2 0x3EC JUMP JUMPDEST JUMPDEST PUSH1 0x20 DUP3 MUL SWAP1 POP PUSH1 0x20 DUP2 ADD SWAP1 POP SWAP2 SWAP1 POP JUMP JUMPDEST PUSH1 0x0 DUP1 REVERT JUMPDEST PUSH1 0x0 PUSH2 0x4AB PUSH2 0x4A6 DUP5 PUSH2 0x467 JUMP JUMPDEST PUSH2 0x44C JUMP JUMPDEST SWAP1 POP DUP1 DUP4 DUP3 MSTORE PUSH1 0x20 DUP3 ADD SWAP1 POP PUSH1 0x20 DUP5 MUL DUP4 ADD DUP6 DUP2 GT ISZERO PUSH2 0x4CE JUMPI PUSH2 0x4CD PUSH2 0x493 JUMP JUMPDEST JUMPDEST DUP4 JUMPDEST DUP2 DUP2 LT ISZERO PUSH2 0x4F7 JUMPI DUP1 PUSH2 0x4E3 DUP9 DUP3 PUSH2 0x394 JUMP JUMPDEST DUP5 MSTORE PUSH1 0x20 DUP5 ADD SWAP4 POP POP PUSH1 0x20 DUP2 ADD SWAP1 POP PUSH2 0x4D0 JUMP JUMPDEST POP POP POP SWAP4 SWAP3 POP POP POP JUMP JUMPDEST PUSH1 0x0 DUP3 PUSH1 0x1F DUP4 ADD SLT PUSH2 0x516 JUMPI PUSH2 0x515 PUSH2 0x3D6 JUMP JUMPDEST JUMPDEST DUP2 CALLDATALOAD PUSH2 0x526 DUP5 DUP3 PUSH1 0x20 DUP7 ADD PUSH2 0x498 JUMP JUMPDEST SWAP2 POP POP SWAP3 SWAP2 POP POP JUMP JUMPDEST PUSH1 0x0 PUSH1 0x20 DUP3 DUP5 SUB SLT ISZERO PUSH2 0x545 JUMPI PUSH2 0x544 PUSH2 0x373 JUMP JUMPDEST JUMPDEST PUSH1 0x0 DUP3 ADD CALLDATALOAD PUSH8 0xFFFFFFFFFFFFFFFF DUP2 GT ISZERO PUSH2 0x563 JUMPI PUSH2 0x562 PUSH2 0x378 JUMP JUMPDEST JUMPDEST PUSH2 0x56F DUP5 DUP3 DUP6 ADD PUSH2 0x501 JUMP JUMPDEST SWAP2 POP POP SWAP3 SWAP2 POP POP JUMP JUMPDEST PUSH32 0x4E487B7100000000000000000000000000000000000000000000000000000000 PUSH1 0x0 MSTORE PUSH1 0x32 PUSH1 0x4 MSTORE PUSH1 0x24 PUSH1 0x0 REVERT JUMPDEST PUSH32 0x4E487B7100000000000000000000000000000000000000000000000000000000 PUSH1 0x0 MSTORE PUSH1 0x11 PUSH1 0x4 MSTORE PUSH1 0x24 PUSH1 0x0 REVERT JUMPDEST PUSH1 0x0 PUSH2 0x5E1 DUP3 PUSH2 0x281 JUMP JUMPDEST SWAP2 POP PUSH2 0x5EC DUP4 PUSH2 0x281 JUMP JUMPDEST SWAP3 POP DUP3 DUP3 ADD SWAP1 POP DUP1 DUP3 GT ISZERO PUSH2 0x604 JUMPI PUSH2 0x603 PUSH2 0x5A7 JUMP JUMPDEST JUMPDEST SWAP3 SWAP2 POP POP JUMP JUMPDEST PUSH1 0x0 PUSH2 0x615 DUP3 PUSH2 0x281 JUMP JUMPDEST SWAP2 POP PUSH32 0xFFFFFFFFFFFFFFFFFFFFFFFFFFFFFFFFFFFFFFFFFFFFFFFFFFFFFFFFFFFFFFFF DUP3 SUB PUSH2 0x647 JUMPI PUSH2 0x646 PUSH2 0x5A7 JUMP JUMPDEST JUMPDEST PUSH1 0x1 DUP3 ADD SWAP1 POP SWAP2 SWAP1 POP JUMP INVALID LOG2 PUSH5 0x6970667358 0x22 SLT KECCAK256 0xDE 0x4B PUSH21 0xD6215D0D39D272C1E2EB1F39CA00C74BC297066023 EXTCODECOPY 0xDE 0xC SWAP1 PUSH2 0x8F85 LOG1 PUSH5 0x736F6C6343 STOP ADDMOD SLT STOP CALLER "
				},
				"gasEstimates": {
					"creation": {
						"codeDepositCost": "334400",
						"executionCost": "5380",
						"totalCost": "339780"
					},
					"external": {
						"acceptArray(uint256[])": "infinite",
						"arr(uint256)": "infinite",
						"display()": "infinite",
						"sumIs()": "2437",
						"sumOfArrayEle()": "infinite"
					}
				},
				"methodIdentifiers": {
					"acceptArray(uint256[])": "e508f2b3",
					"arr(uint256)": "71e5ee5f",
					"display()": "0c1b7c1e",
					"sumIs()": "0c3263fb",
					"sumOfArrayEle()": "ebebf2bd"
				}
			},
			"storageLayout": {
				"storage": [
					{
						"astId": 4,
						"contract": "BCT/Array5.sol:Array",
						"label": "arr",
						"offset": 0,
						"slot": "0",
						"type": "t_array(t_uint256)dyn_storage"
					},
					{
						"astId": 7,
						"contract": "BCT/Array5.sol:Array",
						"label": "sum",
						"offset": 0,
						"slot": "1",
						"type": "t_uint256"
					}
				],
				"types": {
					"t_array(t_uint256)dyn_storage": {
						"base": "t_uint256",
						"encoding": "dynamic_array",
						"label": "uint256[]",
						"numberOfBytes": "32"
					},
					"t_uint256": {
						"encoding": "inplace",
						"label": "uint256",
						"numberOfBytes": "32"
					}
				}
			},
			"userdoc": {
				"kind": "user",
				"methods": {},
				"version": 1
			}
		}
	}
}